{
  "_format": "hh-sol-artifact-1",
  "contractName": "AchoAdPayments",
  "sourceName": "contracts/AchoAdPayments.sol",
  "abi": [
    {
      "inputs": [
        {
          "internalType": "address",
          "name": "_achoToken",
          "type": "address"
        },
        {
          "internalType": "address",
          "name": "_platformWallet",
          "type": "address"
        },
        {
          "internalType": "address",
          "name": "initialOwner",
          "type": "address"
        }
      ],
      "stateMutability": "nonpayable",
      "type": "constructor"
    },
    {
      "inputs": [
        {
          "internalType": "address",
          "name": "owner",
          "type": "address"
        }
      ],
      "name": "OwnableInvalidOwner",
      "type": "error"
    },
    {
      "inputs": [
        {
          "internalType": "address",
          "name": "account",
          "type": "address"
        }
      ],
      "name": "OwnableUnauthorizedAccount",
      "type": "error"
    },
    {
      "anonymous": false,
      "inputs": [
        {
          "indexed": true,
          "internalType": "uint256",
          "name": "campaignId",
          "type": "uint256"
        },
        {
          "indexed": false,
          "internalType": "bool",
          "name": "isValidated",
          "type": "bool"
        }
      ],
      "name": "AdValidated",
      "type": "event"
    },
    {
      "anonymous": false,
      "inputs": [
        {
          "indexed": true,
          "internalType": "uint256",
          "name": "campaignId",
          "type": "uint256"
        },
        {
          "indexed": false,
          "internalType": "address",
          "name": "advertiser",
          "type": "address"
        },
        {
          "indexed": false,
          "internalType": "uint256",
          "name": "amountPaid",
          "type": "uint256"
        }
      ],
      "name": "CampaignCreated",
      "type": "event"
    },
    {
      "anonymous": false,
      "inputs": [
        {
          "indexed": true,
          "internalType": "address",
          "name": "previousOwner",
          "type": "address"
        },
        {
          "indexed": true,
          "internalType": "address",
          "name": "newOwner",
          "type": "address"
        }
      ],
      "name": "OwnershipTransferred",
      "type": "event"
    },
    {
      "anonymous": false,
      "inputs": [
        {
          "indexed": true,
          "internalType": "uint256",
          "name": "campaignId",
          "type": "uint256"
        },
        {
          "indexed": false,
          "internalType": "uint256",
          "name": "amountPaid",
          "type": "uint256"
        }
      ],
      "name": "PaymentDistributed",
      "type": "event"
    },
    {
      "inputs": [],
      "name": "achoToken",
      "outputs": [
        {
          "internalType": "contract IERC20",
          "name": "",
          "type": "address"
        }
      ],
      "stateMutability": "view",
      "type": "function"
    },
    {
      "inputs": [],
      "name": "campaignCounter",
      "outputs": [
        {
          "internalType": "uint256",
          "name": "",
          "type": "uint256"
        }
      ],
      "stateMutability": "view",
      "type": "function"
    },
    {
      "inputs": [
        {
          "internalType": "uint256",
          "name": "",
          "type": "uint256"
        }
      ],
      "name": "campaigns",
      "outputs": [
        {
          "internalType": "address",
          "name": "advertiser",
          "type": "address"
        },
        {
          "internalType": "uint256",
          "name": "amountPaid",
          "type": "uint256"
        },
        {
          "internalType": "bool",
          "name": "isValidated",
          "type": "bool"
        },
        {
          "internalType": "bool",
          "name": "isPaid",
          "type": "bool"
        }
      ],
      "stateMutability": "view",
      "type": "function"
    },
    {
      "inputs": [
        {
          "internalType": "uint256",
          "name": "_amount",
          "type": "uint256"
        },
        {
          "internalType": "address[]",
          "name": "_communityOwners",
          "type": "address[]"
        },
        {
          "internalType": "uint256[]",
          "name": "_revenueShare",
          "type": "uint256[]"
        }
      ],
      "name": "createCampaign",
      "outputs": [],
      "stateMutability": "nonpayable",
      "type": "function"
    },
    {
      "inputs": [
        {
          "internalType": "uint256",
          "name": "_campaignId",
          "type": "uint256"
        }
      ],
      "name": "distributePayments",
      "outputs": [],
      "stateMutability": "nonpayable",
      "type": "function"
    },
    {
      "inputs": [],
      "name": "owner",
      "outputs": [
        {
          "internalType": "address",
          "name": "",
          "type": "address"
        }
      ],
      "stateMutability": "view",
      "type": "function"
    },
    {
      "inputs": [],
      "name": "platformFeePercentage",
      "outputs": [
        {
          "internalType": "uint256",
          "name": "",
          "type": "uint256"
        }
      ],
      "stateMutability": "view",
      "type": "function"
    },
    {
      "inputs": [],
      "name": "platformWallet",
      "outputs": [
        {
          "internalType": "address",
          "name": "",
          "type": "address"
        }
      ],
      "stateMutability": "view",
      "type": "function"
    },
    {
      "inputs": [],
      "name": "renounceOwnership",
      "outputs": [],
      "stateMutability": "nonpayable",
      "type": "function"
    },
    {
      "inputs": [
        {
          "internalType": "address",
          "name": "newOwner",
          "type": "address"
        }
      ],
      "name": "transferOwnership",
      "outputs": [],
      "stateMutability": "nonpayable",
      "type": "function"
    },
    {
      "inputs": [
        {
          "internalType": "uint256",
          "name": "_newFee",
          "type": "uint256"
        }
      ],
      "name": "updatePlatformFee",
      "outputs": [],
      "stateMutability": "nonpayable",
      "type": "function"
    },
    {
      "inputs": [
        {
          "internalType": "uint256",
          "name": "_campaignId",
          "type": "uint256"
        }
      ],
      "name": "validateAd",
      "outputs": [],
      "stateMutability": "nonpayable",
      "type": "function"
    },
    {
      "inputs": [
        {
          "internalType": "uint256",
          "name": "_amount",
          "type": "uint256"
        }
      ],
      "name": "withdrawTokens",
      "outputs": [],
      "stateMutability": "nonpayable",
      "type": "function"
    }
  ],
  "bytecode": "0x6080604052600a60025534801561001557600080fd5b50604051610fde380380610fde8339810160408190526100349161010b565b806001600160a01b03811661006357604051631e4fbdf760e01b81526000600482015260240160405180910390fd5b61006c8161009f565b5050600180546001600160a01b039384166001600160a01b0319918216179091556003805492909316911617905561014e565b600080546001600160a01b038381166001600160a01b0319831681178455604051919092169283917f8be0079c531659141344cd1fd0a4f28419497f9722a3daafe3b4186f6b6457e09190a35050565b80516001600160a01b038116811461010657600080fd5b919050565b60008060006060848603121561012057600080fd5b610129846100ef565b9250610137602085016100ef565b9150610145604085016100ef565b90509250925092565b610e818061015d6000396000f3fe608060405234801561001057600080fd5b50600436106100cf5760003560e01c8063775af59f1161008c578063cdd78cfc11610066578063cdd78cfc146101f6578063f2fde38b1461020d578063fa2af9da14610220578063fca604d71461023357600080fd5b8063775af59f146101a75780638da5cb5b146101d2578063aa0b5988146101e357600080fd5b8063141961bc146100d457806317173df714610151578063297ce5b914610166578063315a095d146101795780633e0912f61461018c578063715018a61461019f575b600080fd5b61011a6100e2366004610c70565b60046020819052600091825260409091208054600182015491909201546001600160a01b039092169160ff8082169161010090041684565b604080516001600160a01b039095168552602085019390935290151591830191909152151560608201526080015b60405180910390f35b61016461015f366004610c70565b61023c565b005b610164610174366004610c70565b6102fb565b610164610187366004610c70565b61065f565b61016461019a366004610cd5565b61071f565b610164610a99565b6001546101ba906001600160a01b031681565b6040516001600160a01b039091168152602001610148565b6000546001600160a01b03166101ba565b6101646101f1366004610c70565b610aad565b6101ff60025481565b604051908152602001610148565b61016461021b366004610d4f565b610b03565b6003546101ba906001600160a01b031681565b6101ff60055481565b610244610b3e565b6000818152600460208190526040909120015460ff16156102a35760405162461bcd60e51b8152602060048201526014602482015273105908185b1c9958591e481d985b1a59185d195960621b60448201526064015b60405180910390fd5b600081815260046020818152604092839020909101805460ff19166001908117909155915191825282917f0be38e71fb6c55d1433dd3432105e43d08079965be8b17fd2948cd18fc39025e910160405180910390a250565b60008181526004602081905260409091209081015460ff1661035f5760405162461bcd60e51b815260206004820152601a60248201527f4164206d7573742062652076616c696461746564206669727374000000000000604482015260640161029a565b6004810154610100900460ff16156103b95760405162461bcd60e51b815260206004820152601b60248201527f5061796d656e7420616c72656164792064697374726962757465640000000000604482015260640161029a565b6000606460025483600101546103cf9190610d95565b6103d99190610db2565b60015460035460405163a9059cbb60e01b81526001600160a01b03918216600482015260248101849052929350169063a9059cbb906044016020604051808303816000875af1158015610430573d6000803e3d6000fd5b505050506040513d601f19601f820116820180604052508101906104549190610dd4565b6104a05760405162461bcd60e51b815260206004820152601c60248201527f506c6174666f726d20666565207472616e73666572206661696c656400000000604482015260640161029a565b60008183600101546104b29190610df6565b905060005b600284015481101561060757600060648560030183815481106104dc576104dc610e09565b9060005260206000200154846104f29190610d95565b6104fc9190610db2565b6001546002870180549293506001600160a01b039091169163a9059cbb91908590811061052b5761052b610e09565b60009182526020909120015460405160e083901b6001600160e01b03191681526001600160a01b039091166004820152602481018490526044016020604051808303816000875af1158015610584573d6000803e3d6000fd5b505050506040513d601f19601f820116820180604052508101906105a89190610dd4565b6105f45760405162461bcd60e51b815260206004820152601760248201527f436f6d6d756e697479207061796f7574206661696c6564000000000000000000604482015260640161029a565b50806105ff81610e1f565b9150506104b7565b5060048301805461ff001916610100179055600183015460405185917f1dc1ff445d92fc99ebf61a473f0f7dda3c6c8f9bd1cedfd74bafb2ff69395b339161065191815260200190565b60405180910390a250505050565b610667610b3e565b60015460405163a9059cbb60e01b8152336004820152602481018390526001600160a01b039091169063a9059cbb906044016020604051808303816000875af11580156106b8573d6000803e3d6000fd5b505050506040513d601f19601f820116820180604052508101906106dc9190610dd4565b61071c5760405162461bcd60e51b815260206004820152601160248201527015da5d1a191c985dd85b0819985a5b1959607a1b604482015260640161029a565b50565b82811461076e5760405162461bcd60e51b815260206004820152601960248201527f4d69736d61746368656420726576656e75652073686172657300000000000000604482015260640161029a565b600085116107be5760405162461bcd60e51b815260206004820181905260248201527f416d6f756e74206d7573742062652067726561746572207468616e207a65726f604482015260640161029a565b6000805b82811015610802578383828181106107dc576107dc610e09565b90506020020135826107ee9190610e38565b9150806107fa81610e1f565b9150506107c2565b5060648111156108545760405162461bcd60e51b815260206004820152601a60248201527f526576656e756520736861726520657863656564732031303025000000000000604482015260640161029a565b6001546040516323b872dd60e01b8152336004820152306024820152604481018890526001600160a01b03909116906323b872dd906064016020604051808303816000875af11580156108ab573d6000803e3d6000fd5b505050506040513d601f19601f820116820180604052508101906108cf9190610dd4565b61090c5760405162461bcd60e51b815260206004820152600e60248201526d14185e5b595b9d0819985a5b195960921b604482015260640161029a565b600580546000918261091d83610e1f565b9190505590506040518060c00160405280336001600160a01b0316815260200188815260200187878080602002602001604051908101604052809392919081815260200183836020028082843760009201919091525050509082525060408051602087810282810182019093528782529283019290918891889182918501908490808284376000920182905250938552505050602080830182905260409283018290528482526004815290829020835181546001600160a01b0319166001600160a01b03909116178155838201516001820155918301518051610a069260028501920190610bbb565b5060608201518051610a22916003840191602090910190610c20565b506080820151600491909101805460a09093015115156101000261ff00199215159290921661ffff1990931692909217179055604080513381526020810189905282917f63e3678c8493a16f8ba43ae9e547231762ca04526dac2c388bd2c26d89401851910160405180910390a250505050505050565b610aa1610b3e565b610aab6000610b6b565b565b610ab5610b3e565b6014811115610afe5760405162461bcd60e51b81526020600482015260156024820152744665652063616e6e6f74206578636565642032302560581b604482015260640161029a565b600255565b610b0b610b3e565b6001600160a01b038116610b3557604051631e4fbdf760e01b81526000600482015260240161029a565b61071c81610b6b565b6000546001600160a01b03163314610aab5760405163118cdaa760e01b815233600482015260240161029a565b600080546001600160a01b038381166001600160a01b0319831681178455604051919092169283917f8be0079c531659141344cd1fd0a4f28419497f9722a3daafe3b4186f6b6457e09190a35050565b828054828255906000526020600020908101928215610c10579160200282015b82811115610c1057825182546001600160a01b0319166001600160a01b03909116178255602090920191600190910190610bdb565b50610c1c929150610c5b565b5090565b828054828255906000526020600020908101928215610c10579160200282015b82811115610c10578251825591602001919060010190610c40565b5b80821115610c1c5760008155600101610c5c565b600060208284031215610c8257600080fd5b5035919050565b60008083601f840112610c9b57600080fd5b50813567ffffffffffffffff811115610cb357600080fd5b6020830191508360208260051b8501011115610cce57600080fd5b9250929050565b600080600080600060608688031215610ced57600080fd5b85359450602086013567ffffffffffffffff80821115610d0c57600080fd5b610d1889838a01610c89565b90965094506040880135915080821115610d3157600080fd5b50610d3e88828901610c89565b969995985093965092949392505050565b600060208284031215610d6157600080fd5b81356001600160a01b0381168114610d7857600080fd5b9392505050565b634e487b7160e01b600052601160045260246000fd5b8082028115828204841417610dac57610dac610d7f565b92915050565b600082610dcf57634e487b7160e01b600052601260045260246000fd5b500490565b600060208284031215610de657600080fd5b81518015158114610d7857600080fd5b81810381811115610dac57610dac610d7f565b634e487b7160e01b600052603260045260246000fd5b600060018201610e3157610e31610d7f565b5060010190565b80820180821115610dac57610dac610d7f56fea26469706673582212200bc9dfd116bafc0abcb5b7ab8f2c17b224197e05f41dabccb2377755ec8d954764736f6c63430008140033",
  "linkReferences": {},
  "deployedLinkReferences": {}
}