{
  "_format": "hh-sol-artifact-1",
  "contractName": "AchoToken",
  "sourceName": "contracts/AchoToken.sol",
  "abi": [
    {
      "inputs": [
        {
          "internalType": "uint256",
          "name": "initialSupply",
          "type": "uint256"
        },
        {
          "internalType": "address",
          "name": "initialOwner",
          "type": "address"
        }
      ],
      "stateMutability": "nonpayable",
      "type": "constructor"
    },
    {
      "inputs": [
        {
          "internalType": "address",
          "name": "spender",
          "type": "address"
        },
        {
          "internalType": "uint256",
          "name": "allowance",
          "type": "uint256"
        },
        {
          "internalType": "uint256",
          "name": "needed",
          "type": "uint256"
        }
      ],
      "name": "ERC20InsufficientAllowance",
      "type": "error"
    },
    {
      "inputs": [
        {
          "internalType": "address",
          "name": "sender",
          "type": "address"
        },
        {
          "internalType": "uint256",
          "name": "balance",
          "type": "uint256"
        },
        {
          "internalType": "uint256",
          "name": "needed",
          "type": "uint256"
        }
      ],
      "name": "ERC20InsufficientBalance",
      "type": "error"
    },
    {
      "inputs": [
        {
          "internalType": "address",
          "name": "approver",
          "type": "address"
        }
      ],
      "name": "ERC20InvalidApprover",
      "type": "error"
    },
    {
      "inputs": [
        {
          "internalType": "address",
          "name": "receiver",
          "type": "address"
        }
      ],
      "name": "ERC20InvalidReceiver",
      "type": "error"
    },
    {
      "inputs": [
        {
          "internalType": "address",
          "name": "sender",
          "type": "address"
        }
      ],
      "name": "ERC20InvalidSender",
      "type": "error"
    },
    {
      "inputs": [
        {
          "internalType": "address",
          "name": "spender",
          "type": "address"
        }
      ],
      "name": "ERC20InvalidSpender",
      "type": "error"
    },
    {
      "inputs": [
        {
          "internalType": "address",
          "name": "owner",
          "type": "address"
        }
      ],
      "name": "OwnableInvalidOwner",
      "type": "error"
    },
    {
      "inputs": [
        {
          "internalType": "address",
          "name": "account",
          "type": "address"
        }
      ],
      "name": "OwnableUnauthorizedAccount",
      "type": "error"
    },
    {
      "anonymous": false,
      "inputs": [
        {
          "indexed": true,
          "internalType": "address",
          "name": "owner",
          "type": "address"
        },
        {
          "indexed": true,
          "internalType": "address",
          "name": "spender",
          "type": "address"
        },
        {
          "indexed": false,
          "internalType": "uint256",
          "name": "value",
          "type": "uint256"
        }
      ],
      "name": "Approval",
      "type": "event"
    },
    {
      "anonymous": false,
      "inputs": [
        {
          "indexed": true,
          "internalType": "address",
          "name": "previousOwner",
          "type": "address"
        },
        {
          "indexed": true,
          "internalType": "address",
          "name": "newOwner",
          "type": "address"
        }
      ],
      "name": "OwnershipTransferred",
      "type": "event"
    },
    {
      "anonymous": false,
      "inputs": [
        {
          "indexed": true,
          "internalType": "address",
          "name": "from",
          "type": "address"
        },
        {
          "indexed": true,
          "internalType": "address",
          "name": "to",
          "type": "address"
        },
        {
          "indexed": false,
          "internalType": "uint256",
          "name": "value",
          "type": "uint256"
        }
      ],
      "name": "Transfer",
      "type": "event"
    },
    {
      "inputs": [
        {
          "internalType": "address",
          "name": "owner",
          "type": "address"
        },
        {
          "internalType": "address",
          "name": "spender",
          "type": "address"
        }
      ],
      "name": "allowance",
      "outputs": [
        {
          "internalType": "uint256",
          "name": "",
          "type": "uint256"
        }
      ],
      "stateMutability": "view",
      "type": "function"
    },
    {
      "inputs": [
        {
          "internalType": "address",
          "name": "spender",
          "type": "address"
        },
        {
          "internalType": "uint256",
          "name": "value",
          "type": "uint256"
        }
      ],
      "name": "approve",
      "outputs": [
        {
          "internalType": "bool",
          "name": "",
          "type": "bool"
        }
      ],
      "stateMutability": "nonpayable",
      "type": "function"
    },
    {
      "inputs": [
        {
          "internalType": "address",
          "name": "account",
          "type": "address"
        }
      ],
      "name": "balanceOf",
      "outputs": [
        {
          "internalType": "uint256",
          "name": "",
          "type": "uint256"
        }
      ],
      "stateMutability": "view",
      "type": "function"
    },
    {
      "inputs": [
        {
          "internalType": "uint256",
          "name": "amount",
          "type": "uint256"
        }
      ],
      "name": "burn",
      "outputs": [],
      "stateMutability": "nonpayable",
      "type": "function"
    },
    {
      "inputs": [],
      "name": "decimals",
      "outputs": [
        {
          "internalType": "uint8",
          "name": "",
          "type": "uint8"
        }
      ],
      "stateMutability": "view",
      "type": "function"
    },
    {
      "inputs": [
        {
          "internalType": "address",
          "name": "to",
          "type": "address"
        },
        {
          "internalType": "uint256",
          "name": "amount",
          "type": "uint256"
        }
      ],
      "name": "mint",
      "outputs": [],
      "stateMutability": "nonpayable",
      "type": "function"
    },
    {
      "inputs": [],
      "name": "name",
      "outputs": [
        {
          "internalType": "string",
          "name": "",
          "type": "string"
        }
      ],
      "stateMutability": "view",
      "type": "function"
    },
    {
      "inputs": [],
      "name": "owner",
      "outputs": [
        {
          "internalType": "address",
          "name": "",
          "type": "address"
        }
      ],
      "stateMutability": "view",
      "type": "function"
    },
    {
      "inputs": [],
      "name": "renounceOwnership",
      "outputs": [],
      "stateMutability": "nonpayable",
      "type": "function"
    },
    {
      "inputs": [],
      "name": "symbol",
      "outputs": [
        {
          "internalType": "string",
          "name": "",
          "type": "string"
        }
      ],
      "stateMutability": "view",
      "type": "function"
    },
    {
      "inputs": [],
      "name": "totalSupply",
      "outputs": [
        {
          "internalType": "uint256",
          "name": "",
          "type": "uint256"
        }
      ],
      "stateMutability": "view",
      "type": "function"
    },
    {
      "inputs": [
        {
          "internalType": "address",
          "name": "to",
          "type": "address"
        },
        {
          "internalType": "uint256",
          "name": "value",
          "type": "uint256"
        }
      ],
      "name": "transfer",
      "outputs": [
        {
          "internalType": "bool",
          "name": "",
          "type": "bool"
        }
      ],
      "stateMutability": "nonpayable",
      "type": "function"
    },
    {
      "inputs": [
        {
          "internalType": "address",
          "name": "from",
          "type": "address"
        },
        {
          "internalType": "address",
          "name": "to",
          "type": "address"
        },
        {
          "internalType": "uint256",
          "name": "value",
          "type": "uint256"
        }
      ],
      "name": "transferFrom",
      "outputs": [
        {
          "internalType": "bool",
          "name": "",
          "type": "bool"
        }
      ],
      "stateMutability": "nonpayable",
      "type": "function"
    },
    {
      "inputs": [
        {
          "internalType": "address",
          "name": "newOwner",
          "type": "address"
        }
      ],
      "name": "transferOwnership",
      "outputs": [],
      "stateMutability": "nonpayable",
      "type": "function"
    }
  ],
  "bytecode": "0x60806040523480156200001157600080fd5b5060405162000f2c38038062000f2c8339810160408190526200003491620002c3565b806040518060400160405280600981526020016820b1b437aa37b5b2b760b91b815250604051806040016040528060048152602001634143484f60e01b8152508160039081620000859190620003a7565b506004620000948282620003a7565b5050506001600160a01b038116620000c757604051631e4fbdf760e01b8152600060048201526024015b60405180910390fd5b620000d28162000100565b50620000f881620000e66012600a62000588565b620000f29085620005a0565b62000152565b5050620005d0565b600580546001600160a01b038381166001600160a01b0319831681179093556040519116919082907f8be0079c531659141344cd1fd0a4f28419497f9722a3daafe3b4186f6b6457e090600090a35050565b6001600160a01b0382166200017e5760405163ec442f0560e01b815260006004820152602401620000be565b6200018c6000838362000190565b5050565b6001600160a01b038316620001bf578060026000828254620001b39190620005ba565b90915550620002339050565b6001600160a01b03831660009081526020819052604090205481811015620002145760405163391434e360e21b81526001600160a01b03851660048201526024810182905260448101839052606401620000be565b6001600160a01b03841660009081526020819052604090209082900390555b6001600160a01b038216620002515760028054829003905562000270565b6001600160a01b03821660009081526020819052604090208054820190555b816001600160a01b0316836001600160a01b03167fddf252ad1be2c89b69c2b068fc378daa952ba7f163c4a11628f55a4df523b3ef83604051620002b691815260200190565b60405180910390a3505050565b60008060408385031215620002d757600080fd5b825160208401519092506001600160a01b0381168114620002f757600080fd5b809150509250929050565b634e487b7160e01b600052604160045260246000fd5b600181811c908216806200032d57607f821691505b6020821081036200034e57634e487b7160e01b600052602260045260246000fd5b50919050565b601f821115620003a257600081815260208120601f850160051c810160208610156200037d5750805b601f850160051c820191505b818110156200039e5782815560010162000389565b5050505b505050565b81516001600160401b03811115620003c357620003c362000302565b620003db81620003d4845462000318565b8462000354565b602080601f831160018114620004135760008415620003fa5750858301515b600019600386901b1c1916600185901b1785556200039e565b600085815260208120601f198616915b82811015620004445788860151825594840194600190910190840162000423565b5085821015620004635787850151600019600388901b60f8161c191681555b5050505050600190811b01905550565b634e487b7160e01b600052601160045260246000fd5b600181815b80851115620004ca578160001904821115620004ae57620004ae62000473565b80851615620004bc57918102915b93841c93908002906200048e565b509250929050565b600082620004e35750600162000582565b81620004f25750600062000582565b81600181146200050b5760028114620005165762000536565b600191505062000582565b60ff8411156200052a576200052a62000473565b50506001821b62000582565b5060208310610133831016604e8410600b84101617156200055b575081810a62000582565b62000567838362000489565b80600019048211156200057e576200057e62000473565b0290505b92915050565b60006200059960ff841683620004d2565b9392505050565b808202811582820484141762000582576200058262000473565b8082018082111562000582576200058262000473565b61094c80620005e06000396000f3fe608060405234801561001057600080fd5b50600436106100ea5760003560e01c806370a082311161008c57806395d89b411161006657806395d89b41146101d8578063a9059cbb146101e0578063dd62ed3e146101f3578063f2fde38b1461022c57600080fd5b806370a082311461018c578063715018a6146101b55780638da5cb5b146101bd57600080fd5b806323b872dd116100c857806323b872dd14610142578063313ce5671461015557806340c10f191461016457806342966c681461017957600080fd5b806306fdde03146100ef578063095ea7b31461010d57806318160ddd14610130575b600080fd5b6100f761023f565b604051610104919061077d565b60405180910390f35b61012061011b3660046107e7565b6102d1565b6040519015158152602001610104565b6002545b604051908152602001610104565b610120610150366004610811565b6102eb565b60405160128152602001610104565b6101776101723660046107e7565b61030f565b005b61017761018736600461084d565b610325565b61013461019a366004610866565b6001600160a01b031660009081526020819052604090205490565b610177610332565b6005546040516001600160a01b039091168152602001610104565b6100f7610346565b6101206101ee3660046107e7565b610355565b610134610201366004610888565b6001600160a01b03918216600090815260016020908152604080832093909416825291909152205490565b61017761023a366004610866565b610363565b60606003805461024e906108bb565b80601f016020809104026020016040519081016040528092919081815260200182805461027a906108bb565b80156102c75780601f1061029c576101008083540402835291602001916102c7565b820191906000526020600020905b8154815290600101906020018083116102aa57829003601f168201915b5050505050905090565b6000336102df8185856103a3565b60019150505b92915050565b6000336102f98582856103b5565b610304858585610434565b506001949350505050565b610317610493565b61032182826104c0565b5050565b61032f33826104f6565b50565b61033a610493565b610344600061052c565b565b60606004805461024e906108bb565b6000336102df818585610434565b61036b610493565b6001600160a01b03811661039a57604051631e4fbdf760e01b8152600060048201526024015b60405180910390fd5b61032f8161052c565b6103b0838383600161057e565b505050565b6001600160a01b0383811660009081526001602090815260408083209386168352929052205460001981101561042e578181101561041f57604051637dc7a0d960e11b81526001600160a01b03841660048201526024810182905260448101839052606401610391565b61042e8484848403600061057e565b50505050565b6001600160a01b03831661045e57604051634b637e8f60e11b815260006004820152602401610391565b6001600160a01b0382166104885760405163ec442f0560e01b815260006004820152602401610391565b6103b0838383610653565b6005546001600160a01b031633146103445760405163118cdaa760e01b8152336004820152602401610391565b6001600160a01b0382166104ea5760405163ec442f0560e01b815260006004820152602401610391565b61032160008383610653565b6001600160a01b03821661052057604051634b637e8f60e11b815260006004820152602401610391565b61032182600083610653565b600580546001600160a01b038381166001600160a01b0319831681179093556040519116919082907f8be0079c531659141344cd1fd0a4f28419497f9722a3daafe3b4186f6b6457e090600090a35050565b6001600160a01b0384166105a85760405163e602df0560e01b815260006004820152602401610391565b6001600160a01b0383166105d257604051634a1406b160e11b815260006004820152602401610391565b6001600160a01b038085166000908152600160209081526040808320938716835292905220829055801561042e57826001600160a01b0316846001600160a01b03167f8c5be1e5ebec7d5bd14f71427d1e84f3dd0314c0f7b2291e5b200ac8c7c3b9258460405161064591815260200190565b60405180910390a350505050565b6001600160a01b03831661067e57806002600082825461067391906108f5565b909155506106f09050565b6001600160a01b038316600090815260208190526040902054818110156106d15760405163391434e360e21b81526001600160a01b03851660048201526024810182905260448101839052606401610391565b6001600160a01b03841660009081526020819052604090209082900390555b6001600160a01b03821661070c5760028054829003905561072b565b6001600160a01b03821660009081526020819052604090208054820190555b816001600160a01b0316836001600160a01b03167fddf252ad1be2c89b69c2b068fc378daa952ba7f163c4a11628f55a4df523b3ef8360405161077091815260200190565b60405180910390a3505050565b600060208083528351808285015260005b818110156107aa5785810183015185820160400152820161078e565b506000604082860101526040601f19601f8301168501019250505092915050565b80356001600160a01b03811681146107e257600080fd5b919050565b600080604083850312156107fa57600080fd5b610803836107cb565b946020939093013593505050565b60008060006060848603121561082657600080fd5b61082f846107cb565b925061083d602085016107cb565b9150604084013590509250925092565b60006020828403121561085f57600080fd5b5035919050565b60006020828403121561087857600080fd5b610881826107cb565b9392505050565b6000806040838503121561089b57600080fd5b6108a4836107cb565b91506108b2602084016107cb565b90509250929050565b600181811c908216806108cf57607f821691505b6020821081036108ef57634e487b7160e01b600052602260045260246000fd5b50919050565b808201808211156102e557634e487b7160e01b600052601160045260246000fdfea2646970667358221220bf9a3a71a3e572317a8671f9fae88376e9b60fcd2ad73ab1d2eb50113dbd2f7164736f6c63430008140033",
  "linkReferences": {},
  "deployedLinkReferences": {}
}